:020000040800F2
:100000002007002001010008712800089F1A00083D
:10001000B125000809020008A12E00080000000018
:10002000000000000000000000000000352B000868
:10003000350300080000000073280008372B000873
:100040001B0100081B0100081B0100081B01000820
:100050001B0100081B0100081B0100081B01000810
:100060001B0100081B0100081B0100081B01000800
:100070001B0100081B0100081B0100081B010008F0
:100080001B0100081B0100081B0100081B010008E0
:100090001B0100081B0100081B01000829060008BD
:1000A0001B010008A12C00081B0100081B0100080F
:1000B0001B0100081B0100081B0100081B010008B0
:1000C0001B0100081B0100081B0100081B010008A0
:1000D0001B0100081B0100081B0100081B01000890
:1000E0001B0100081B0100081B010008DFF80CD0F1
:1000F00000F040F800480047F934000820070020CD
:100100000648804706480047FEE7FEE7FEE7FEE7B1
:10011000FEE7FEE7FEE7FEE7FEE7FEE7B72B000897
:10012000ED000008D2B201E000F8012B491EFBD21D
:1001300070470022F6E710B513460A4604461946F2
:10014000FFF7F0FF204610BD30B50B4601460020FA
:100150002022012409E021FA02F59D4205D303FA89
:1001600002F5491B04FA02F52844151EA2F101020A
:10017000F1DC30BD064C074D06E0E06840F00103BD
:1001800094E8070098471034AC42F6D3FFF7B2FF6B
:100190000C4B00082C4B000810B5044601F05AFD2A
:1001A000A02001F023FD01F0CBFC204601F01EFD54
:1001B00001F0C6FC012000F08BFA01F04BFDA120FC
:1001C00001F014FD01F0BCFC002001F0DBFC044652
:1001D00001F062FD204610BD70B50D46044601F0E9
:1001E00039FDA02001F002FD01F0AAFC204601F03B
:1001F000FDFC01F0A5FC284601F0F8FC01F0A0FC94
:10020000BDE8704001F048BDFEE700002DE9F04771
:10021000454D4FF480573946284600F071FB434E58
:10022000434C4FF400684FF48079012824D14146B3
:10023000284600F065FB01281ED14946284600F0FB
:100240005FFB012818D10221304600F059FB01283C
:1002500012D14021284600F053FB01280CD1802107
:10026000284600F04DFB012806D10121304600F060
:1002700047FB012800D1207039462F46284600F060
:100280003FFB002510B92078012805D041463846AB
:1002900000F036FB20B106E025700120BDE8F087B4
:1002A0002078012805D04946384600F029FB18B1CE
:1002B00005E025700220F1E72078012805D0022111
:1002C000304600F01DFB18B105E025700320E5E77E
:1002D0002078012805D04021384600F011FB18B1E4
:1002E00005E025700420D9E72078012805D0802179
:1002F000384600F005FB18B105E025700520CDE774
:100300002078012805D00121304600F0F9FA18B113
:1003100005E025700620C1E72078012801D00020E3
:10032000BCE725700720B9E700080140000C014038
:1003300030000020704700002DE9FF4F81B0834658
:10034000029891460F30DFF85C808026009022E012
:100350004FEA001A0BF107025846009B029901F080
:100360005CFF002500240AEB050700BF18F8070012
:1003700026FA04F1084201D0049800E00E9801F03A
:1003800017FF641C082CF1DB6D1C102DEADB09F152
:1003900001090BF1080B99F800000028D8D105B02D
:1003A000BDE8F08F98350008F8B5844C4FF6FF751E
:1003B0000A26607808B1012828D180481030817859
:1003C0000091437802787EA1814802F06BFD002302
:1003D0007F4A102120200095FFF7AEFF60790128A9
:1003E00004D0022806D0032808D00CE000221E21E9
:1003F000202006E000221E21382002E000221E21DB
:10040000502001F0F5FE6078012874D0C0B20328B6
:100410006FD122796FA16E48521C02F043FD002378
:100420006B4A194618460095FFF786FF2079684FFA
:1004300000EB80010F3707EB410082780092437890
:1004400017F811205EA1624802F02CFD0023604ADB
:10045000102120200095FFF76FFF207900EB80002E
:1004600007EB40014A79B2FBF6F006FB1020B2FB25
:10047000F6F2B2FBF6F306FB132300900A7957A1BC
:10048000534802F00FFD0023514A3C2146200095BD
:10049000FFF752FF207954A100EB800007EB4000EA
:1004A000C37982794A4802F0FDFC0023484A502172
:1004B00046200095FFF740FF207900EB800007EB16
:1004C00040014A7AB2FBF6F006FB1020B2FBF6F2CE
:1004D000B2FBF6F306FB132300900A7A45A13C48D1
:1004E00002F0E0FC00233A4A642146200095FFF721
:1004F00023FFF8BDFFE7A0696422B0FBF2F1B1FB76
:10050000F6F306FB13114FF47A77B0FBF7F3B3FB66
:10051000F2FC02FB1C333A4A0091B0FBF2F239A123
:100520002B4802F0BFFC0023294A3C2146200095BD
:10053000FFF702FF228936A1254802F0B3FC002311
:10054000234A282146200095FFF7F6FEE1693C206A
:10055000B1FBF0F200FB1213B1FBF0F222A11C4838
:1005600002F0A0FC00231A4A502146200095FFF714
:10057000E3FEA06940F6B831884201D86E2010E051
:10058000E169A0F6B83001EB410100EB4000C90081
:100590004FF49672C000B1FBF2F1B0FBF7F00844E3
:1005A0006E30B0FBF6F1B0FBF6F206FB11036061B2
:1005B0001AA1074802F076FC94E700000000002032
:1005C000252E32643A252E32643A252E32640000FC
:1005D000C40100202564202000000000252E326484
:1005E00025642E25646B6D00252E32643A252E324B
:1005F00064200000256425642E2564524D422000AD
:10060000A08601002564252E32642E25646B6D00C2
:10061000252E32646B6D2F682000000025642E2586
:1006200064524D4220000000202000F06DB872B6E8
:10063000FEE700002DE9FF5F8346DDF838803EE0ED
:100640005FF00005214805EB051198F8002010F82F
:10065000113093422BD100EB410A98F801009AF82F
:100660000110814223D1019B0BF10F02194658461C
:100670000F3301F0D2FD00264FF0800900240AEB71
:10068000060729FA04F0B978014201D0029804E083
:10069000DDE90201884202D0084601F089FD641CB0
:1006A000E4B2082CEDD3761CF6B2202EE6D36D1CF6
:1006B000EDB2322DC6D30BF1100B08F1020898F8F9
:1006C00000000028BCD1BDE8FF9F0000994500084C
:1006D00070B5044600F01EF90546601C02D00448BF
:1006E0000078044400F016F9401BA042FAD370BD14
:1006F00020000020202803D102494889401C48815D
:100700007047000000000020044910B50A6802424A
:1007100002D00860FFF7EEFF10BD00001404014096
:100720002DE9F84FDFF8B891002409F1040A0AF125
:10073000040B23460F270BF1040EC9E00125A54049
:100740002A40AA427DD1674ED1F804C0ACEB06081E
:10075000B44532D014DCBCF1030F3AD009DCBCF153
:10076000000F2AD0BCF1010F1CD0BCF1020F31D117
:100770001DE0BCF1110F17D0BCF1120F2AD119E006
:10078000B8F5881F19D006DCB8F5803F15D0B8F54C
:10079000801F1FD111E0B8F5001F0ED0B8F5041F5F
:1007A00018D10AE0CB6815E0CB681B1D12E0CB68BE
:1007B00008330FE0CB680C330CE08B682BB1012BB6
:1007C0004FF0080303D0456104E0042302E0056113
:1007D00000E00023FF2A01D8064601E000F10406EC
:1007E0004FEA840501D9A5F12005D6F8008007FA63
:1007F00005FC28EA0C0803FA05F548EA0508C6F8DE
:1008000000804D68ED0062D5374DAE6946F00106B7
:10081000AE61AD6924F0030605F001050095334D86
:1008200006EB050CDCF80850A607360F07FA06F8A9
:1008300025EA0805DFF8B880404503D14FF00008ED
:1008400017E044E0DFF8AC80404502D14FF00108EA
:100850000FE0DFF8A480404502D14FF0020808E025
:10086000DFF89880404502D14FF0030801E04FF0D7
:10087000040808FA06F848EA0508CCF808804D682C
:10088000D9F80060ED034D4601D5164300E09643CC
:100890002E604D68DAF80060AD03554601D5164369
:1008A00000E096432E604D68DBF80060ED025D4687
:1008B00001D5164300E096432E604D68DEF80060D7
:1008C000AD02754601D5164300E096432E60641CC8
:1008D0000D682A46E5407FF431AFBDE8F88F00008F
:1008E000000401400000111000100240000001400F
:1008F00000080140000C01400010014000140140BC
:100900008068084000D0012070470AB1016170473B
:100910000904FBE7014880687047000020000020C0
:1009200002488168027811448160704720000020ED
:10093000074810B5016841F010010160032000F084
:1009400075F8002000F006F800F024F8002010BD33
:100950000020024070B50D4D04464FF47A7128789E
:10096000B1FBF0F00A490968B1FBF0F000F087FD37
:1009700048B9102C07D200222146501E00F036F84C
:1009800000206C6070BD012070BD000020000020C0
:100990002C0000200C4808B5816941F001018161FB
:1009A000816901F001010091C16941F08051C1618B
:1009B000C06900F0805000900448416821F0E06177
:1009C00041F00071416008BD00100240000001408C
:1009D000002809DB00F01F0201219140400980003E
:1009E00000F1E020C0F8001170470000F0B40E4B99
:1009F0001B680C46C3F30223C3F10705042D00D97D
:100A00000425191D072901D2002300E0DB1E012661
:100A100006FA05F1491E214099409E40761E164077
:100A20003143F0BC02F052BA0CED00E0064900F090
:100A3000070208684FF6FF03184040EA0220034A05
:100A400010430860704700000CED00E00000FA055C
:100A5000014901200862704700000E4210B529A428
:100A600001461DCC86B08DE81D002AA02A4C0068E6
:100A700004900020012923D002293AD010291DD149
:100A800061682268D20119D5C1F38342C9031DF8F8
:100A9000020009D5616804AAC1F34041515C1F4AB4
:100AA000B2FBF1F1484301E01D4948436168490246
:100AB00004D440005FF00301B0FBF1F006B010BDBC
:100AC000226AC2F30121012903D1920701D5C8038B
:100AD000F4E7022905D1626A920702D549F640403F
:100AE000ECE70329EAD121688903E7D54FF22440D6
:100AF000E4E700F033F96168C1F38131491C490032
:100B0000DAE7000002030405060708090A0B0C0DCA
:100B10000E0F1010010200000010024000127A00B7
:100B200000093D002DE9F84305460078354CC00723
:100B300054D0E0690026C00008D4E06940F080503D
:100B4000E061E069012600F0805000902E480168C5
:100B5000C90512D40168804641F480710160FFF735
:100B6000D9FE074605E000BFFFF7D4FEC01B64288E
:100B700023D8D8F80000C005F6D5206A10F44070DC
:100B800021D0A98801F4407181421CD0206A1F49FC
:100B9000012220F440700A6000220A602062C0072F
:100BA00011D0FFF7B7FE074641F2883808E000BFD2
:100BB000FFF7B0FEC11B414502D90320BDE8F88311
:100BC000206A8007F4D5206A696820F440700843E1
:100BD00020621EB1E06920F08050E0612878800733
:100BE00005D56068A96820F4404008436060287813
:100BF000C00605D56068E96820F48000084360609D
:100C00000020DBE700100240007000404004424238
:100C10002DE9F0470F46050061D0434E306800F0E3
:100C20000700B84209D2306820F00700384330602E
:100C3000306800F00700B84251D128683B4C81076A
:100C400012D5400703D5606840F4E0606060287802
:100C5000000703D5606840F4605060606068A96870
:100C600020F0F000084360602878C00728D068684A
:100C7000012810D02168022810D0890700292EDA17
:100C8000616821F0030101436160FFF743FE804684
:100C900041F288390DE021688903EFE78901EDE72A
:100CA000FFF738FEA0EB0801494502D90320BDE853
:100CB000F0876068696800F00C00B0EB810FEFD13D
:100CC000306800F00700B8420BD9306820F0070008
:100CD00038433060306800F00700B84201D001208E
:100CE000E5E72878400705D56068E96820F4E0600A
:100CF000084360602878000706D56068296920F4F9
:100D0000605040EAC100606000F038F86168084A4D
:100D1000C1F30311515CC8400649086006480068E9
:100D2000FFF718FE0020C2E700200240001002403A
:100D3000803500082C0000202400002004480549CC
:100D400000684968044AC1F30221515CC8407047F9
:100D50002C0000200010024090350008044805498E
:100D600000684968044AC1F3C221515CC840704719
:100D70002C000020001002409035000812A185B020
:100D80000FC98DE80F0014A0144A00680490516840
:100D9000134801F00C03042B10D0082B0ED1C1F323
:100DA0008343C9031DF803000AD5516804AAC1F39F
:100DB0004041515C0A4A5043B0FBF1F005B0704726
:100DC00008494843FAE7000002030405060708093A
:100DD0000A0B0C0D0E0F1010010200000010024053
:100DE00000127A0000093D002DE9F84F040070D090
:100DF0002078C04DC00749D06868C0F38100012841
:100E000007D06868C0F38100022809D16868C00370
:100E100006D52868800339D560680028E7D035E01A
:100E20006068B0F5803F0BD010B1B0F5A02F11D0A5
:100E3000286820F480302860286820F4802002E0B0
:100E4000286840F480302860606890B1FFF762FD48
:100E500006460AE0286840F480202860F0E700BFDA
:100E6000FFF758FD801B642873D828688003F7D5E6
:100E70000CE0FFF74FFD064605E000BFFFF74AFD17
:100E8000801B6428F0D828688003F7D420789A4E15
:100E900080074FF001094FF0000839D5686810F05D
:100EA0000C0F07D06868C0F38100022809D1686878
:100EB000C00306D42868800714D52069012808D10A
:100EC00010E02069B0B1C6F80090FFF723FD074697
:100ED00005E00AE1FFF71EFDC01B0228C4D8286800
:100EE0008007F7D52868616920F0F80040EAC10062
:100EF00028600DE0C6F80080FFF70CFD074604E00F
:100F0000FFF708FDC01B022823D828688007F7D404
:100F1000207800072CD57948A169D9B1C0F8009094
:100F2000FFF7F8FC074604E0FFF7F4FCC01B0228BB
:100F30000FD8686A8007F7D571484FF4FA510068F6
:100F4000B0FBF1F0009000BF0098411E0091FAD272
:100F50000EE080E0C0F80080FFF7DCFC074604E00C
:100F6000FFF7D8FCC01B022875D8686A8007F7D441
:100F70002078400760D5E8690027C00008D4E869F8
:100F800040F08050E861E869012700F0805000904F
:100F90005C480168C90513D40168834641F4807137
:100FA0000160FFF7B7FC824606E000BFFFF7B2FC26
:100FB000A0EB0A0064284ED8DBF80000C005F5D588
:100FC000E06801280AD008B1052813D0286A20F06B
:100FD00001002862286A20F0040002E0286A40F03C
:100FE00001002862E06841F2883B98B1FFF792FC6B
:100FF00082460BE0286A40F004002862EEE700BF5A
:10100000FFF788FCA0EB0A0159455AD8286A8007E7
:10101000F6D50CE0FFF77EFC824605E0FFF77AFC90
:10102000A0EB0A0159454CD8286A8007F6D41FB1B5
:10103000E86920F08050E861E06988B36968C1F32D
:101040008101022944D00228C6F8608004D0FFF74D
:1010500061FC044638E034E0FFF75CFC074604E03E
:10106000FFF758FCC01B02282BD828688001F7D452
:10107000206AB0F5803F05D16868A16820F400308F
:1010800008436860D4E908010843696821F47411D1
:1010900008436860C6F86090FFF73CFC044606E031
:1010A00025E000BFFFF736FC001B022809D828689E
:1010B0008001F7D51BE000BFFFF72CFC001B0228C6
:1010C00002D90320BDE8F88F28688001F4D40EE02F
:1010D0000128F7D06868226A00F48031914204D177
:1010E000616A00F47010884201D00120EAE7002014
:1010F000E8E7000000100240000042428004424243
:101100002C00002000700040024850F8210080B2FE
:1011100070470000006C0040024800EB810091B273
:1011200001607047006C00402DE9F04791460C4685
:101130005FEA00084AD084B3D8F80000406840074E
:1011400044D4404601F03EFC4FF461620546B0FBDA
:10115000F2F1B0FBF2F302FB13503C23B0FBF3F0CF
:10116000B5FBF2F6607002FB1650B0FBF3F203FB26
:101170001200A070182931D31820B1FBF0F7B1FB91
:10118000F0F200FB12102070404601F014FC411CEC
:1011900004D0A84202D9461B02E017E04FF0FF3608
:1011A000A7EB071000EB4000C0EB001005EBC015EB
:1011B0002946404601F055FC40B9701C01D0711918
:1011C00000E03146404601F038FC10B10120BDE896
:1011D000F0873946404601F061FB00E02170B9F12B
:1011E000000F0BD0207801F04EFB2070607801F0EA
:1011F0004AFB6070A07801F046FBA0700020E6E793
:1012000070B5040003D0607C002610B105E0012019
:1012100070BD2674204600F043F80220607420461A
:1012200000F010F9042578BB204601F08EFB58BB76
:101230002068416821F007014160A06820B117488B
:10124000016821F0010101601448001F0168A268D3
:1012500021F46071114301606068411C04D10120D8
:10126000FFF7FCFB80B1401E21688A6822F00F0264
:1012700042EA10428A602168CA6860F30F02CA60BD
:10128000204601F07DFB08B16574C0E7E6730120DC
:101290006073A0736074002070BD0000306C00406B
:1012A00008B50068084988420DD1FFF7D1FB07480F
:1012B000C16941F00061C161C069054900F0006089
:1012C00000900120086008BD002800400010024086
:1012D0003C0442422DE9F0410D4604003BD0C5B329
:1012E000207C01283AD04FF0010884F810800220B9
:1012F0006074E87872B301F0BDFAE073687801F0C9
:10130000B9FA6073A87801F0B5FAA073C2B2617B34
:10131000E07B01F067FB20732870204601F052FB50
:101320004FF46161B0FBF1F1002518292DD9182285
:10133000B1FBF2F1A1EB011101EB4101C1EB011194
:1013400000EBC1163146204601F08BFB0427C8B9DB
:101350000BE000E004E00120BDE8F0810220FBE7A3
:10136000E07368786073A878CFE7204601F023FB2C
:10137000411C0AD0B04208D206490144204601F07F
:101380005CFB10B167742574E5E784F8118025745F
:101390000020E1E7805101002DE9F0410D460400F5
:1013A00024D01DB3207C012823D04FF0010884F8FD
:1013B0001080022060742878EAB101F05BFA4FF4E3
:1013C000616100FB01F6687801F054FAC0EB00108F
:1013D00006EB8006A87801F04DFA3518294620461C
:1013E00001F03FFB0026042710BB0FE00120BDE801
:1013F000F0810220FBE74FF4616148436978C1EB5B
:10140000011100EB8100A9784518E7E720684168E1
:1014100021F005014160204601F0CDFA411C0AD0BF
:10142000A84208D206490144204601F006FB10B14B
:1014300067742674DAE784F8118026740020D6E7F2
:101440008051010070B504000AD02068416821F085
:1014500008014160FFF75EFA05464FF47A7608E02E
:10146000012070BDFFF756FA401BB04201D903209E
:1014700070BD206840680007F4D5002070BD10B52D
:10148000401EB0F1807F01D3012010BD4FF0E02459
:1014900060610F21601701F019FD0020A061072095
:1014A0002061002010BD70477047000070B590F8B3
:1014B0003C20012A26D0012480F83C40022280F8FA
:1014C0003D2003685A689D6822F070060A6832431E
:1014D0005A600D4B02689A4208D0B2F1804F05D095
:1014E0000A4B9A4202D00A4B9A4204D1496825F02D
:1014F00080031943916080F83D40002180F83C1042
:10150000084670BD022070BD002C01400004004060
:101510000008004010B5040003D094F83D0010B15D
:1015200007E0012010BD002084F83C00204600F0B8
:101530001FF8022084F83D00211D206801F0B6FB51
:10154000012084F8460084F83E0084F83F0084F8C7
:10155000400084F8410084F8420084F8430084F895
:10156000440084F8450084F83D00002010BD0000D0
:1015700008B500680B49884212D10B48816941F4D3
:10158000006181618069002200F400600090012107
:101590001920FFF72BFABDE808401920FFF718BA09
:1015A00008BD0000002C01400010024090F83D10E2
:1015B000012901D001207047022180F83D10016807
:1015C000CA6842F00102CA6000680B49884208D02C
:1015D000B0F1804F05D00949884202D008498842BD
:1015E00004D1816801F00701062903D0016841F0A8
:1015F0000101016000207047002C01400004004000
:101600000008004070B5044690F83C00012817D04F
:10161000012584F83C50022084F83D00206882684F
:1016200022F0770222F47F4282600868502830D08E
:101630000DDC20284DD005DC98B310283BD148E0C4
:10164000022070BD302844D0402834D139E06028D1
:1016500028D0702806D0B0F5805F2CD0B0F5005FA0
:1016600029D10AE0CB68D1E90121206801F054FBBF
:101670002068816841F0770109E0CB68D1E9012158
:10168000206801F049FB2068816841F48041816055
:1016900011E0CA684968206801F050FB50212068B9
:1016A00007E016E0CA684968206801F058FB60212D
:1016B000206801F03BFB84F83D50002084F83C009A
:1016C00070BDCA684968206801F038FB4021206875
:1016D000EFE7226801461046EBE7704770B5044615
:1016E000006801694FF00005C943890715D4C16836
:1016F000C943890711D4E91E0161012020772068C0
:1017000080698007204602D0FFF7E7FF04E000F081
:1017100098F8204600F096F8257720680169C943BB
:10172000490717D4C168C943490713D46FF00401AE
:101730000161022020772068806910F4407F2046F4
:1017400002D0FFF7CAFF04E000F07BF8204600F06B
:1017500079F8257720680169C943090716D4C1685B
:10176000C943090712D46FF00801016104202077F2
:101770002068C0698007204602D0FFF7AEFF04E072
:1017800000F05FF8204600F05DF8257720680169D9
:10179000C943C90617D4C168C943C90613D46FF039
:1017A00010010161082020772068C06910F4407F93
:1017B000204602D0FFF791FF04E000F042F82046F7
:1017C00000F040F8257720680169C943C90708D1AE
:1017D000C168C943C90704D1891E0161204600F0D0
:1017E00033F820680169C943090609D4C168C943AF
:1017F000090605D46FF0800101612046FFF753FE12
:1018000020680169C943490609D4C168C94349062A
:1018100005D46FF040010161204600F05FF82068B8
:101820000169C94389060BD4C168C943890607D435
:101830006FF0200101612046BDE87040FFF734BE23
:1018400070BD704770470000224830B4818940F66F
:10185000B834491C8BB2014683814A780021A342E7
:1018600016D301238181C37043891424B3FBF4F39D
:101870000381012A0BD14FF47A7463434FF46164FE
:10188000B3FBF4F3846903EB430323448361418195
:10189000012A0CD1028952B9C289521C92B2C2816A
:1018A000B2F57A7F03D3C181C269521CC2618279C9
:1018B000521CD2B282710C2A00D381718179827854
:1018C0000548914201D2012200E0002230BC0221F1
:1018D000FFF71BB80000002000080140704770B5FA
:1018E000040004D094F83D00002510B106E001206A
:1018F00070BD84F83C50204600F022F8242084F883
:101900003D002068C16821F40051C160204601F00B
:1019100039FA2068016921F4904101612068416928
:1019200021F02A0141612068C16841F40051C16081
:101930002564202084F83D0084F83E00002070BD1E
:1019400070B586B000240094019402940394234E51
:101950000368234902200322224DB34219D18B6927
:1019600043F480438B618B6903F4804304938B6958
:1019700043F004038B618969039201F0040104912F
:101980000102CDE9001069462846FEF7C9FE281578
:101990001BE0154EB3421FD1CB6943F40033CB613A
:1019A000CB6903F4003304938B6943F004038B6128
:1019B0008969039201F0040104910421CDE900102A
:1019C00069462846FEF7ACFE0820CDE900046946CA
:1019D00028460294FEF7A4FE06B070BD0038014010
:1019E0000010024000080140004400402DE9F84387
:1019F000044690F83D001F4616460D4620284CD15F
:101A0000C5B1BEB194F83C00012846D0012084F84D
:101A10003C004FF00008C4F84080212084F83D00CD
:101A2000FEF778FFA6848146E684A068B0F5805F63
:101A300003D004E00120BDE8F883206928B12E46D8
:101A40005FF0000584F83C800EE00026FAE7802174
:101A5000204601F0F3F9A0B9AEB116F8010B2168E8
:101A60004860E08C401EE084E08C4B464FF0000262
:101A700000970028EBD14FF04001204601F0DEF93D
:101A800030B10320D7E735F8020BC0F30800E6E7D2
:101A9000202084F83D000020CDE70220CBE7FEE7C0
:101AA00010B50F4C002210212046FEF72EFF01F04A
:101AB00013F8002201212046FEF727FF142001F031
:101AC000CBFB012210212046FEF71FFF142001F05E
:101AD000C3FB20460022BDE810401021FEF715BFD1
:101AE0000008014070B5144886B0816941F00401D6
:101AF0008161816901F004010491816941F004016F
:101B000081618069012400F0040004901020CDE977
:101B100000040A4E032569463046CDE90245FEF72A
:101B2000FFFD0094694630460194CDE90245FEF779
:101B3000F7FD06B070BD0000001002400008014033
:101B400010B50F4C002210212046FEF7DEFE00F0FB
:101B5000C3FF012211462046FEF7D7FE142001F0F4
:101B60007BFB012210212046FEF7CFFE142001F05E
:101B700073FB20460022BDE810401021FEF7C5BED1
:101B8000000801402DE9F0418046002400F096FF56
:101B9000154E00254FF6FF77002210213046FEF744
:101BA000B4FE142001F058FB012210213046FEF74C
:101BB000ACFE07EA440401213046FEF7A1FE08B15D
:101BC000641CA4B2142001F047FB6D1CEDB2082D7B
:101BD000E2D3B8F1000F04D0FFF762FFE0B2BDE836
:101BE000F081FFF7ADFFF9E70008014070B5054649
:101BF00000F072FF164E002210213046FEF785FEDF
:101C00000024280601D5012200E0002201213046EF
:101C1000FEF77BFE6806050E142001F01DFB012275
:101C200010213046FEF771FE142001F015FB002252
:101C300010213046FEF769FE142001F00DFB641CF4
:101C4000E4B2082CDDD3BDE87040142001F004BBE1
:101C50000008014010B500F03FFF0E4C0122114674
:101C60002046FEF752FE012210212046FEF74DFECF
:101C7000142001F0F1FA002201212046FEF745FE72
:101C8000142001F0E9FA20460022BDE8104010219E
:101C9000FEF73BBE0008014010B500F01DFF0E4CE2
:101CA000002210212046FEF730FE002201212046AE
:101CB000FEF72BFE142001F0CFFA0122102120465E
:101CC000FEF723FE012211462046FEF71EFEBDE868
:101CD0001040142001F0C0BA000801402DE9FE4375
:101CE000FEF794FAAB4C0028207016D000264FF671
:101CF000FF7704F1100508280FD2DFE800F00E048A
:101D0000091025F7F5F4A0780A2806D2001D03E093
:101D1000A078002801D0001FA070BDE8FE83607885
:101D2000617901430CD00328F7D12079401CC0B25F
:101D300020710A28F1D36670384601F0AEFACBE084
:101D4000032060702671F7E7208961790843E4D1A8
:101D50006178A04620464FF47A7921B1012928D034
:101D600002297DD0B0E00120444688F8010000F04F
:101D70005FF989A000903B46002228212020FEF731
:101D800059FC88A0002200903B463C211046FEF7FB
:101D900051FC89A18F4801F085F882B23B468D49FC
:101DA0008D48FFF723FE4846FEF792FCA661E661E8
:101DB0008AE00221417041690A24B1FBF4F204FB7C
:101DC0001213D8F818206426B2FBF6F0B1FBF4F138
:101DD000B0FBF4FC04FB1C04B2FBF9F0B0FBF6FC16
:101DE00006FB1C00DFF8F4C10094B2FBFCF2CDE965
:101DF000011303467AA1774801F054F882B23B46BA
:101E000074497548FFF7F2FD80A1724801F04AF865
:101E100082B23B466F497048FFF7E8FD6D490924DF
:101E2000D73104EB8402002001EB4202131813F8AF
:101E30000A3C1354401CC0B20A28F7D3641E14F0A5
:101E4000FF04EED12878087068784870A878887008
:101E5000D8F8182042F21073B2FBF3F30B7100E0D4
:101E60003EE0B2FBF6F2B2FBF6F306FB13224A7138
:101E7000D8F81C303C22B3FBF2F58D71B3FBF2F5C0
:101E800002FB1532CA71D8F814008946B0FBF6F28D
:101E90000A72B0FBF6F206FB1200487204EB8407EC
:101EA000002509EB470605EB4700715DC0B2FEF760
:101EB00093F90220FEF70CFC6D1CEDB20A2DF2D353
:101EC000641CE4B20A2CE9D398F801000228BFF49C
:101ED00024AF00BF00F0ACF8BDE8FE4300F0C0B88E
:101EE00088F80160F6E733E013E0FFE76078002848
:101EF0007FF413AF6079401CC0B260710428FFF416
:101F00000CAF2449002210314848FFF745FA6671AA
:101F100003E7607901280BD0022811D00328F7D1FC
:101F2000A878401CC0B2A8703C28F1D3AE70F4E68B
:101F30002878401CC0B228701828E9D32E70ECE62F
:101F40006878401CC0B268703C28E1D36E70E4E64B
:101F5000617901290CD03B20022912D00329D7D165
:101F6000A978491EC9B2A9703C29D1D3A870D4E67A
:101F70002878401EC0B228701828C9D317202870AE
:101F8000CBE66978491EC9B269703C29C0D3687034
:101F9000C3E6000000000020BBB6D3ADB9E2C1D952
:101FA00000000000C9CFB3B5C7EBCFB5BAC3B0B21C
:101FB000C8ABB4F800000000BBB6D3ADB9E2C1D9DC
:101FC000A3ACC9CFB3B5C7EBCFB5BAC3B0B2C8AB3A
:101FD000B4F80000FC000020D8020020A086010018
:101FE000B1BEB4CEB3CBD7F8B9ABC0EFCAFDCEAA61
:101FF0002564252E32642E2564A3ACBCDBB8F1CE5B
:10200000AA252E32642E2564D4AA0000B3CBBFCDFE
:10201000C7EBB4D3D3D2C3C5CFC2B3B5A3ACBBB6A1
:10202000D3ADCFC2B4CEB3CBD7F800003802002076
:1020300070B57F231A462821002000F0EEF8002515
:102040004FF6FF760024304600F0B2F8641CE4B28C
:10205000802CF8D36D1CEDB2582DF3D370BD000069
:1020600038B538484FF6FF744078E0B1012859D0B0
:10207000032817D134A00090234600223C210820D9
:10208000FEF7D8FA32A000220090234650211046D5
:10209000FEF7D0FA31A000902346002264211020E0
:1020A000FEF7C8FA38BD00232EA228211846009456
:1020B000FEF742F92CA00090234600222821082098
:1020C000FEF7B8FA00232BA2282158200094FEF72F
:1020D00033F929A000902346002228216820FEF72A
:1020E000A9FA26A00022009023463C211046FEF7C4
:1020F000A1FA002324A23C2150200094FEF71CF9F1
:102100001DA00090234600223C216820FEF792FA91
:102110001EA000902346002250211820FEF78AFAC4
:102120001DA0B8E708A00090234600223C2108200B
:10213000FEF780FA1CA000222821009023461020E0
:102140009EE7000000000020B9ABC0EFCAFD000010
:10215000B5C8B4FDCAB1BCE400000000BCDBB8F1F6
:102160000000000033000000B9ABC0EFC6F0B2BD04
:10217000BCDB000031310000D4AA0000D2D4C9CFAA
:10218000C3BFB9ABC0EF0000322E3400C3BFB5C827
:10219000CEE5B7D6D6D30000B0B4D2BBB9ABC0EF52
:1021A000BCC6B7D100000000CBD9B6C80000000003
:1021B00070B50E4E04464FF40055002229463046B5
:1021C000FEF7A3FB0122D1023046FEF79EFBC4F3CB
:1021D000072000F08FFCE0B200F08CFC294630466E
:1021E000BDE870400122FEF790BB0000000C0140EA
:1021F00070B516468B1C00F10F0200F00EF800259A
:1022000000243046FFF7D4FF641CE4B2022CF8D35C
:102210006D1CEDB2102DF3D370BD2DE9F0410746D2
:102220001C4615460E462A2000F040F8002000F01B
:1022300021F8BF1CF8B200F01DF8002000F01AF8D9
:10224000AD1CE8B200F016F82B2000F02FF80020AB
:1022500000F010F8F61CF0B200F00CF8002000F0CE
:1022600009F8E41CE0B200F005F8BDE8F0412C20CC
:1022700000F01CB870B50C4D06464FF40054002217
:1022800021462846FEF741FB0122D1022846FEF7EF
:102290003CFB304600F02EFC21462846BDE870404D
:1022A0000122FEF732BB0000000C014070B50C4D5E
:1022B00006464FF40054002221462846FEF725FB2F
:1022C0000022A1102846FEF720FB304600F012FC49
:1022D00021462846BDE870400122FEF716BB0000EB
:1022E000000C01402DE9F04186B0002538480095EA
:1022F000019502950395816941F010018161816921
:1023000001F010010491816941F00401816181694A
:1023100001F004010491816941F008018161806943
:102320002C4F00F008004FF4005404900022214686
:102330003846FEF7EAFADFF8A08000220221404684
:10234000FEF7E3FA0122D1034046FEF7DEFA0094DD
:1023500001AA0124022682E8700069463846FEF789
:10236000DFF9F813CDE900040320CDE90240694606
:102370004046FEF7D5F9202000901848CDE9010528
:1023800069464046FEF7CCF9CDE90065144E694632
:1023900002943046FEF7C4F94FF4CE50CDE9000563
:1023A000694602944046FEF7BBF9CDE9004569460F
:1023B00030460294FEF7B4F9002211461720FEF7CA
:1023C00015FB1720FEF704FB06B0BDE8F081000006
:1023D00000100240001001400008014000001110F0
:1023E000000C0140FEB50024384801940094C169F6
:1023F00041F00061C161C16901F000610291C169F0
:1024000041F08051C161C069324D00F080500290AE
:102410002F482860601EC5E901042846FEF7F0FE3B
:1024200008B1FEF704F901212A48FEF76DFE45F2D6
:102430005106B04243D08DF804408DF805408DF828
:102440000640012201A92348FEF7A6FF08B1FEF7C6
:10245000EEF806208DF8000004208DF80100012020
:102460008DF8020020208DF80300012269461948EA
:10247000FEF730FF08B1FEF7DAF82868016841F08E
:1024800001010160324601211248009CFEF744FE22
:10249000220E02210F48FEF73FFEC4F3072203215C
:1024A0000C48FEF739FEC4F3074204210948FEF741
:1024B00033FEE2B205210748FEF72EFEFEBD286876
:1024C000016841F001010160FEBD00000010024002
:1024D000002800403802002010B586B000241748BC
:1024E00000940194029403940494134905940160A8
:1024F0003F21C0E9011440F2E731C0E9031444610F
:102500008461FFF707F808B1FEF791F84FF48050A7
:10251000009069460948FFF775F808B1FEF787F89B
:10252000049404A905480594FEF7C0FF002801D0D3
:10253000FEF77DF806B010BD002C01404C020020D3
:102540000C4810B50A4901604FF416514160002152
:1025500081600C22C160C0E904128161C161FFF792
:10256000BEF9002803D0BDE81040FEF760B810BDEA
:1025700000380140940200200C4810B50A4901605F
:102580004FF416514160002181600C22C160C0E906
:1025900004128161C161FFF7A2F9002803D0BDE8F0
:1025A0001040FEF744B810BD00440040D80200209F
:1025B000FEE70000F8B56E4C607928B9002204F1FE
:1025C00010016C48FEF7B0FDE07801287CD10020B6
:1025D000E07060784FF6FF76002874D00A25012855
:1025E0007AD0022872D003286ED1227962A166487F
:1025F000521C00F057FC82B23746334662496348AA
:10260000FFF7F4F92079624E00EB800006EB400101
:102610008A7800924B7816F810205EA15A4800F094
:1026200041FC82B23B4658495848FFF7DFF9207910
:1026300000EB800006EB40004179B1FBF5F205FBB1
:102640001212B1FBF5F1B1FBF5F305FB1313009288
:10265000027956A14C4800F025FC82B23B464A491B
:102660004A48FFF7C3F9207956A100EB800006EB3A
:102670004000C3798279444800F014FC82B23B46A2
:1026800041494248FFF7B2F9207900EB800006EBA0
:1026900040014A7AB2FBF5F005FB1020B2FBF5F2DF
:1026A000B2FBF5F305FB132300900A7A4BA13648E1
:1026B00000F0F8FB82B23B4601B03349BDE8F04080
:1026C0003248FFF793B902E050E005E00FE048A17F
:1026D0002D4800F0E7FB46E0228954A12A4800F08B
:1026E000E1FB82B2334628492848FFF77FF9A06909
:1026F0006421B0FBF1F2B2FBF5F305FB13234FF4B9
:102700007A72B0FBF2F2B2FBF1F701FB17214C4AEF
:102710000093B0FBF2F20B464AA11B4800F0C2FB4B
:1027200082B2334618491948FFF760F9E0693C2145
:10273000B0FBF1F201FB1203B0FBF1F221A1124850
:1027400000F0B0FB82B233460F491048FFF74EF954
:102750006069B0FBF5F1B0FBF5F205FB11033FA199
:10276000094800F09FFB82B23346A5E7F8BD0000A0
:102770000000002038020020B5DA2564B4CEBCC7C2
:10278000C2BC0D0A000000003400002094020020AA
:10279000D3010020CAB1BCE4A3BA252E32643A2585
:1027A0002E32643A252E3264200D0A00B9ABC0EFF8
:1027B000CAFDA3BA252E326425642E25646B6D0DE7
:1027C0000A000000B5C8B4FDCAB1BCE4A3BA252E06
:1027D00032643A252E32640D0A000000BCDBB8F1E9
:1027E000A3BA256425642E2564524D420D0A0000CB
:1027F00033B9ABC0EFC6F0B2BDBCDB3131D4AA0DEA
:102800000AD2D4C9CFC3BFB9ABC0EF322E34D4AAD9
:102810000D0AC3BFB5C8CEE5B7D6D6D3B0B4D2BBC8
:10282000B9ABC0EFBCC6B7D10D0A0000CBD9B6C852
:10283000A3BA252E32646B6D2F680D0A00000000CC
:10284000A0860100B9ABC0EFCAFDA3BA2564252E4E
:1028500032642E25646B6D0D0A000000BCDBB8F1FC
:10286000A3BA25642E2564524D420D0A00000000D3
:10287000FEE77047010901EB810100F00F0000EB5A
:102880004100C0B27047002102E00A38C0B2491CC2
:102890000A28FAD2090740EA116070472DE9F04191
:1028A00004460025C07B627BA37B42E0012A16D050
:1028B000032A14D0052A12D0072A10D0082A0ED0D5
:1028C0000A2A0CD00C2A0AD0042A10D0062A0ED0CC
:1028D000092A0CD00B2A0AD0022A0DD028E01F2B7F
:1028E0000CD30C2A05D101221346401C20E01E2BDC
:1028F00004D30123521C1BE01C2B02D203F1010361
:1029000016E011D183B29E0710D16426B3FBF6F70F
:1029100006FB173636B94FF4C876B3FBF6F706FB5D
:1029200017331BB91D2303E01D2B01D10322012303
:102930006D1C8D42BAD3D1B2E0736173DAB2A27367
:1029400000F050F82073BDE8F08170B50446FDF743
:10295000E1FF05464FF47A7606E0FDF7DBFF401B0A
:10296000B04201D9032070BD206840688006F4D5CC
:102970002068416841F010014160002070BD0000F6
:1029800070B504460068416821F010014160FDF710
:10299000C1FF05464FF47A7607E000BFFDF7BAFFA6
:1029A000401BB04201D9032070BD206840688006FA
:1029B000F4D5002070BD0168086A496A89B241EA0D
:1029C00000407047006881698AB2C1698BB2816931
:1029D00089B28A4203D0C06961F31F40704743EA5D
:1029E00002407047F0B56424C1EBC1030927A5007C
:1029F000072603EB01130329B3FBF7F100F5FA6097
:102A0000114401440AD2401EB0FBF4F201EB9001E4
:102A1000B0FBF5F0891A0844001D08E0B0FBF4F2A1
:102A200001EB9001B0FBF5F0891A0844801CB0FB63
:102A3000F6F106FB1100C0B2F0BD70B50D460646BA
:102A40000024FFF782FF48B93168280C086231681A
:102A5000A8B248623046FFF793FF00B10124204638
:102A600070BD70B50D4606460024FFF76EFF48B9ED
:102A70003168280C88613168A8B2C8613046FFF718
:102A80007FFF00B10124204670BD000070B50A4DE3
:102A90004FF48054002221462846FDF736FF64207B
:102AA000FDF716FE012221462846FDF72EFFBDE860
:102AB00070406420FDF70CBE000C01401FB50020E3
:102AC0000190029003900120009069460148FDF7B3
:102AD00027FE1FBD000801401FB501200090019096
:102AE00002900320039069460148FDF719FE1FBDBF
:102AF0000008014070B50E4E05460824280601D591
:102B0000012200E0002280213046FDF7FEFE002277
:102B100040213046FDF7F9FE012240213046FDF705
:102B2000F4FE6806050E641E14F0FF04E6D170BDC5
:102B3000000C01407047FDF7F3BE70B594B028213A
:102B40006846FDF7F6FA14210AA8FDF7F2FA002408
:102B50000F940620012500901020CDE90450039524
:102B600012944FF46010CDE908401194022610949D
:102B700007966846FEF738F908B172B6FEE70F20EF
:102B8000CDE90A064FF48060CDE90C4002210AA885
:102B90000E94FEF73DF808B172B6FEE74FF4807070
:102BA000CDE90F500FA8FDF7BDFF002801D072B688
:102BB000FEE714B070BD704770B5374886B08169C4
:102BC00041F008018161816901F008010491816986
:102BD00041F008018161816901F008010491816976
:102BE00041F008018161816901F008010491816966
:102BF00041F008018161816901F008010491816956
:102C000041F008018161816901F008010491816945
:102C100041F0080181618069012400F008000490FE
:102C20004FF48070CDE900041C4E03256946304600
:102C3000CDE90245FDF774FD4020CDE90004694669
:102C40003046CDE90245FDF76BFD8020CDE900045B
:102C500069463046CDE90245FDF762FDE002CDE967
:102C6000000469463046CDE90245FDF759FD2003D1
:102C7000CDE9000469463046CDE90245FDF750FD37
:102C80006003CDE9000469463046CDE90245FDF711
:102C900047FD06B070BD000000100240000C01406E
:102CA0000148FEF71BBD00004C020020F0B5026891
:102CB000164B174C174D4FF08047984205D0B8423D
:102CC00003D0A04201D0A84203D122F070064A6886
:102CD0003243984205D0B84203D0A04201D0A84266
:102CE00003D122F44074CA6822434C6922F0800266
:102CF000224302608A68C2620A688262984201D1F5
:102D00000969016301214161F0BD0000002C01400F
:102D1000000400400008004010B5846842EA032225
:102D200024F47F440A432243826010BD826822F06B
:102D300070020A4342F007018160704710B5036AD0
:102D4000046A24F001040462846924F0F00444EA73
:102D5000021423F00A020A438461026210BD10B516
:102D6000036A23F0100303628369046A23F4704347
:102D700043EA023224F0A00343EA011182610162B6
:102D800010BD000070B5044600680169E26821F4D6
:102D90004051114301612169A068084361690843FA
:102DA0002168CA6841F20C639A430243CA602068F2
:102DB0004169A26921F44071114341611E492068B3
:102DC000884202D1FDF7CAFF01E0FDF7B7FF00EB33
:102DD000C00101EB0012606864218000B2FBF0F3D7
:102DE000B3FBF1F36FF018067343B2FBF0F5B2FBDF
:102DF000F0F605EB8305322303EB0515B5FBF1F582
:102E0000B6FBF1F605F0F00505EB0615B2FBF0F6A2
:102E1000B2FBF0F0B0FBF1F06FF01802504306EB9C
:102E2000800003EB0010B0FBF1F0216800F00F0010
:102E30002844886070BD0000003801402DE9F04151
:102E4000984617460E460446069D1DE0681C1BD09A
:102E50002DB1FDF75FFDA0EB0800A84214D9206852
:102E6000C16821F4D071C1602068416921F001017D
:102E70004161202084F83D0084F83E00002084F861
:102E80003C000320BDE8F0812068006836EA0000BD
:102E900004D00020B842D9D00020F3E70120F9E7A0
:102EA000FEE700000FB4084B10B504A902AA03986E
:102EB00000F02CF8044602A9002000F0C8F92046D2
:102EC00010BC5DF814FB00004F3200080907090E22
:102ED000002804DB00F1E02080F80014704700F0C7
:102EE0000F0000F1E02080F8141D704702E008C8D0
:102EF000121F08C1002AFAD170477047002001E074
:102F000001C1121F002AFBD1704700002DE9FF4FBD
:102F10008BB088460546002606E025280BD0DDE963
:102F20000D1290476D1C761C28780028F5D10FB043
:102F30003046BDE8F08F0024A146A2460122AE49EA
:102F400000E0044315F8013F203B02FA03F0084279
:102F5000F7D128782A2810D06FF02F022878A0F116
:102F60003001092915D809EB890102EB410144F030
:102F7000020400EB01096D1CF0E758F8041B5FEA3E
:102F8000010903D544F40054C9F1000944F00204D6
:102F90006D1C28782E2817D115F8010F44F0040471
:102FA0002A280ED06FF02F022878A0F130010929CD
:102FB0000AD80AEB8A0102EB410100EB010A6D1C01
:102FC000F2E758F804AB6D1C28786C280FD006DCAB
:102FD0004C2817D068280DD06A2814D104E0742832
:102FE00010D07A280FD10DE044F400140AE044F424
:102FF000801401E044F440146978814202D104F560
:1030000080146D1C6D1C2878692865D006DC0028AA
:103010008DD0632827D0642806D15DE06E2808D0C3
:1030200073282AD0752877D0DDE90D129047761CD9
:10303000E0E0C4F30250022809D003280DD0D8F8EC
:10304000001004280DD00E6008F10408D2E0D8F872
:103050000010F217C1E90062F6E7D8F800100E8000
:10306000F2E70E70F0E718F8041B8DF8001000204E
:103070008DF80100EB46012003E058F804BB4FF047
:10308000FF3061074FF0000701D40AE07F1C57456D
:103090000DDA8742FADB1BF807100029F6D106E0AB
:1030A0007F1C8742FCDB1BF807100029F8D1DDE903
:1030B0000D23A9EB07008146214600F0B1F830440A
:1030C000C61904E0DDE90D121BF8010B90477F1EC5
:1030D000F8D22146484688E058F8040BC4F3025160
:1030E0004FF00A0B032900D100B2042900D140B2ED
:1030F000002802DA40422D2102E0210505D52B21CE
:103100008DF82410012104E006E0E10710D0202111
:10311000F6E708AF089113E058F8040BC4F3025126
:103120004FF00A0B032900D180B2042900D1C0B2AC
:103130000021EEE75946FDF707F8303107F8011D89
:103140000028F7D1ADEB070000F1200B600702D596
:1031500024F4803401E04FF0010ADA4502DDAAEBE5
:103160000B0000E00020824600EB0B0108980144B0
:10317000A9EB01000A90E00306D4DDE90D23214606
:103180000A9800F04DF806444FF0000908E009A93C
:1031900011F80900DDE90D12904709F10109761CCB
:1031A00008998945F3DBE0030CD5DDE90D232146C1
:1031B0000A9800F035F8064404E0DDE90D123020ED
:1031C0009047761CBAF10001AAF1010AF5DC05E08E
:1031D000DDE90D1217F8010B9047761CBBF10001D9
:1031E000ABF1010BF4DC0A982146DDE90D2300F078
:1031F00005F806446D1C97E6092801002DE9F04109
:10320000044600251E461746880404D405E03946C6
:103210002020B0476D1C641EF9D52846BDE8F0811A
:103220002DE9F041044600251E469046C80301D50D
:10323000302700E02027880404D505E041463846C1
:10324000B0476D1C641EF9D52846BDE8F0810A68B8
:10325000531C0B60107070472DE9F0414FF0E024D3
:103260000546A769FDF756FBAD010646BD420BD9E1
:10327000FDF750FBB042FBD0781B00F57A40A16906
:103280008142FCD8BDE8F0817D1BA069A842F9D934
:10329000FDF740FBB042F8D0F4E770B506467F2357
:1032A00000211A460846FEF7B8FF002400253046E4
:1032B000FEF77EFF6D1CEDB2802DF8D3641CE4B2E6
:1032C000802CF3D370BD000010B5FFF7DFFB112099
:1032D000FEF7ECFF7820FDF7FBF9B120FEF7E6FFE3
:1032E0000120FEF7C7FF2C20FEF7C4FF2D20FEF7BC
:1032F000C1FFB220FEF7DAFF0120FEF7BBFF2C2052
:10330000FEF7B8FF2D20FEF7B5FFB320FEF7CEFF86
:103310000120FEF7AFFF2C20FEF7ACFF2D20FEF7BB
:10332000A9FF0120FEF7A6FF2C20FEF7A3FF2D200A
:10333000FEF7A0FFB420FEF7B9FF0720FEF79AFFC3
:10334000C020FEF7B3FFA220FEF794FF0220FEF795
:1033500091FF8420FEF78EFFC120FEF7A7FFC52056
:10336000FEF788FFC220FEF7A1FF0A20FEF782FFCA
:103370000020FEF77FFFC320FEF798FF8A20FEF7AC
:1033800079FF2A20FEF776FFC420FEF78FFF8A2000
:10339000FEF770FFEE20FEF76DFFC520FEF786FFFB
:1033A0000E20FEF767FF3620FEF780FFC820FEF7ED
:1033B00061FFE020FEF77AFF0F20FEF75BFF1A2087
:1033C000FEF758FF0F20FEF755FF1820FEF752FFBB
:1033D0002F20FEF74FFF2820FEF74CFF2020FEF79E
:1033E00049FF2220FEF746FF1F20FEF743FF1B2068
:1033F000FEF740FF2320FEF73DFF3720FEF73AFFA0
:103400000020FEF737FF0720FEF734FF0220FEF70B
:1034100031FF1020FEF72EFFE120FEF747FF0F20BF
:10342000FEF728FF1B20FEF725FF0F20FEF722FFE7
:103430001720FEF71FFF3320FEF71CFF2C20FEF79E
:1034400019FF2920FEF716FF2E20FEF713FF30206C
:10345000FEF710FF3020FEF70DFF3920FEF70AFFC0
:103460003F20FEF707FF0020FEF704FF0720FEF7CE
:1034700001FF0320FEF7FEFE1020FEF7FBFE2A20D0
:10348000FEF714FF0020FEF7F5FE0220FEF7F2FE25
:103490000020FEF7EFFE8220FEF7ECFE2B20FEF769
:1034A00005FF0020FEF7E6FE0320FEF7E3FE002006
:1034B000FEF7E0FE8320FEF7DDFEF020FEF7F6FECD
:1034C0000120FEF7D7FEF620FEF7F0FE0020FEF703
:1034D000D1FE3A20FEF7EAFE0520FEF7CBFE2920BA
:1034E000FEF7E4FE0122BDE8104011020148FDF79D
:1034F0000CBA0000000C0140FDF71AFAFFF71DFBA3
:10350000FEF7F0FEFEF7E8FFFFF71AF8FFF734F8D2
:10351000FEF768FFFFF750FBFFF7D6FE4FF6FF7090
:10352000FFF7BBFE1448FEF741F8FEF7DBFADFF8C1
:103530004C80002505EB8507002408EB470600BFFB
:1035400004EB4700C0B2FCF727FE30550120FDF721
:10355000BFF8641CE4B20A2CF2D36D1CEDB20A2D44
:10356000E8D3FEF77DFD00BFFEF7B8FBFFF722F8BA
:10357000FCF71AFFF8E700004C020020D3010020FE
:103580000000000000000000010203040607080913
:103590000000000001020304000000000000000021
:1035A000000000000000000000000000000000001B
:1035B000000000000000000000000000000000000B
:1035C00000000000000000000000000000000000FB
:1035D00000000000000000000000000000000000EB
:1035E00000000000000000000000000000000000DB
:1035F00000000000000000000000000000000000CB
:1036000000000000000000000000000000000000BA
:1036100000000000000000000000001808C80808B2
:10362000000000000000000000007F60606060603B
:10363000606060E06020000000000000000000000A
:103640000000000000000000000018181810101002
:10365000000000000000000000000000000000006A
:103660000808080C0C0C000000000000000000001E
:10367000000000000000000000006C3810007CC654
:10368000701CC67C00000000000010386C00780C34
:103690007CCCCC76000000000000000000007CC65E
:1036A00070C0C67C000000000000000000006C96A6
:1036B0007CD0D66C000000000000000000007CC63A
:1036C0000606C67C00000000000000386CC6C6FE7E
:1036D000C6C66C380000000000000000001038284A
:1036E0006C44C6C6000000000000000000007CC65C
:1036F00006FEC67C00000000000000000000DC6642
:103700006666F60606663C000000006C38F80C7E23
:10371000C6C6C67C000000000000000E1B1818186A
:1037200018181818D87000000000000000FE860C61
:10373000180C0606C67C0000000076DC0000780C41
:103740007CCCCC7600000000000076DC00007CC65B
:103750000606C67C00000000000076DC0000DC6687
:1037600066666666000000000000000000007699B2
:103770009F98996F0000000000000000000000000A
:103780000000000C06060000000000000000000021
:1037900000003C66663C00000000000000000000E5
:1037A0000000000000000000000000183C3C3C1835
:1037B00018001818000000000000C6C6C64400002B
:1037C00000000000000000000000006C6CFE6C6C4B
:1037D0006CFE6C6C000000000018187CC6C2C07C37
:1037E0000686C67C181800000000000000C3C60C46
:1037F000183063C300000000000000386C6C38769D
:10380000DCCCCC76000000000000303030600000DE
:103810000000000000000000000000183060606040
:103820006060301800000000000000180C0606065A
:1038300006060C180000000000000000006C38FEB6
:10384000386C000000000000000000001818187E0E
:103850001818180000000000000000000000000020
:10386000001818183000000000000000000000FEE2
:103870000000000000000000000000000000000048
:10388000000018180000000000000002060C1830AC
:1038900060C08000000000000000007CC6CEDEF6A4
:1038A000E6C6C67C00000000000000183878181832
:1038B0001818187E000000000000007CC6060C18D6
:1038C0003060C6FE000000000000007CC606063C1A
:1038D0000606C67C000000000000000C1C3C6CCCFE
:1038E000FE0C0C1E00000000000000FEC0C0C0FC6A
:1038F0000606C67C000000000000003860C0C0FC66
:10390000C6C6C67C00000000000000FEC6060C18FB
:1039100030303030000000000000007CC6C6C67C9D
:10392000C6C6C67C000000000000007CC6C6C67E7D
:1039300006060C78000000000000000018180000C7
:103940000018180000000000000000001818000017
:103950000018183000000000000000060C1830604D
:1039600030180C06000000000000000000007E007F
:10397000007E0000000000000000006030180C060F
:103980000C183060000000000000007CC6C60C1857
:1039900018001818000000000000007CC6C6DEDE1B
:1039A000DEDCC07C0000000000000010386CC6C6E1
:1039B000FEC6C6C600000000000000FC6666667C0D
:1039C000666666FC000000000000003C66C2C0C0E5
:1039D000C0C2663C00000000000000F86C6666662D
:1039E00066666CF800000000000000FE6662687801
:1039F000686266FE00000000000000FE66626878F3
:103A0000686060F0000000000000003C66C2C0C0BA
:103A1000DEC6663A00000000000000C6C6C6C6FE4C
:103A2000C6C6C6C6000000000000003C18181818E2
:103A30001818183C000000000000001E0C0C0C0CB4
:103A40000CCCCC7800000000000000E6666C6C78BE
:103A50006C6C66E600000000000000F060606060D2
:103A6000606266FE00000000000000C6EEFED6C6E2
:103A7000C6C6C6C600000000000000C6E6F6FEDEB0
:103A8000CEC6C6C600000000000000386CC6C6C620
:103A9000C6C66C3800000000000000FC6666667C4C
:103AA000606060F0000000000000007CC6C6C6D662
:103AB000DE7C0C0E00000000000000FC6666667CE8
:103AC0006C6666E6000000000000007CC6C6603838
:103AD0000CC6C67C000000000000007E5A181818B2
:103AE0001818183C00000000000000C6C6C6C6C674
:103AF000C6C6C67C00000000000000C6C6C6C6C61A
:103B0000C66C381000000000000000C6C6C6C6C65D
:103B1000D6FEEEC600000000000000C6C6C66C3827
:103B20006CC6C6C600000000000000C6C6C66C38E1
:103B30003838387C00000000000000FEC68C1830C9
:103B400060C2C6FE000000000000003C3030303093
:103B50003030303C0000000000000080C0E07038D1
:103B60001C0E0602000000000000003C0C0C0C0CB7
:103B70000C0C0C3C000000000010386CC60000006B
:103B80000000000000000000000000000000000035
:103B90000000000000FE00000000303018000000AF
:103BA0000000000000000000000000000000780C91
:103BB0007CCCCC7600000000000000E06060786CF7
:103BC000666666DC000000000000000000007CC6A5
:103BD000C0C0C67C000000000000001C0C0C3C6C47
:103BE000CCCCCC76000000000000000000007CC6B9
:103BF000FEC0C67C000000000000001C3632307C95
:103C0000303030780000000000000000000076CC6A
:103C1000CCCC7C0CCC780000000000E060606C76BE
:103C2000666666E6000000000000001818003818FC
:103C30001818183C000000000000000606000E06E0
:103C400006060666663C0000000000E06060666CE8
:103C5000786C66E60000000000000038181818189C
:103C60001818183C0000000000000000000044FE8E
:103C7000D6D6D6D600000000000000000000DC66AA
:103C800066666666000000000000000000007CC65A
:103C9000C6C6C67C00000000000000000000DC6614
:103CA00066667C6060F0000000000000000076CCDA
:103CB000CCCC7C0C0C1E0000000000000000DC7668
:103CC000666060F0000000000000000000007CC69C
:103CD000701CC67C00000000000000103030FC307A
:103CE0003030361C00000000000000000000CCCC8A
:103CF000CCCCCC7600000000000000000000C6C65E
:103D0000C66C381000000000000000000000C6C6AD
:103D1000C6D6FE6C00000000000000000000C66C6B
:103D200038386CC600000000000000000000C6C665
:103D3000C6C67E060C780000000000000000FECC25
:103D4000183066FE000000000000000E1818187001
:103D50001818180E000000000000001818181800AD
:103D60001818181800000000000000701818180E2D
:103D7000181818700000000000000076DC00000039
:103D80000000000000000000000000000000000033
:103D90000000000000000000000000000000000023
:103DA0000000000000000000000000000000000013
:103DB0000000000000000000000000000000000003
:10459000000000000000000000D2BB00000000008E
:1045A000000000000000000000FFFE00000000000E
:1045B0000000000000000000000000B6FE00000047
:1045C0000000003FF80000000000000000000000B4
:1045D0000000000000FFFE000000000000C8FD0019
:1045E0000000007FFC00000000000000003FF80019
:1045F000000000000000000000FFFE00000000CBF3
:10460000C4000000007FFC44444444444444444407
:10461000444844483C5004600440047FFC4004008B
:1046200000CEE500007FFC02000200020002003F15
:10463000F00410041004100410081008100810FFF3
:10464000FE0000C1F902000100008000800000FFB0
:10465000FE00000000044004200810080810082094
:104660000440040000C8D500001FF0101010101006
:1046700010101010101FF01010101010101010104B
:104680001010101FF01010B5C820403F7E489085D4
:104690000801003FF801000100FFFE000000207F3C
:1046A000FC0820042004A00040B4FD08400840108D
:1046B0004023FC4840084017FE3010501097FE1071
:1046C0001012101110111010501020BCDB084008FF
:1046D0004008A010A011103208340651109110119A
:1046E00010111011101110121012101410C6F00831
:1046F00000080008F87E0808080808FEF80888285E
:104700008028802E842884287C58004FFE8000B2A8
:10471000BD0100010011F8110011001100FFFE01A0
:1047200000010011081110212040C003001C00E00E
:1047300000B9AB00800480048008400840102020AD
:10474000104208820604000440082010203FF010A8
:10475000100000C0EF00003FF8210821083FF821B9
:104760000821083FF8010001003FF80100010001A5
:1047700000FFFE0000D4AA00003FF8000000000087
:1047800000FFFE044004400440044008400842107A
:10479000422042403E8000C3BF10001FFC2000208A
:1047A000005FF0901012101110FFFE201022102157
:1047B000103FFC001000A00040D2D40010041022D2
:1047C0001021102110201020102020202020202433
:1047D0004028503088210402020402C9CF0200029E
:1047E00000020002000200020003F80200020002C0
:1047F000000200020002000200FFFE0000B7D60027
:10480000400440042008201010200840049FE204C7
:10481000200420042008200820102021404080D6B9
:10482000D3102010203C20202041FCBD2411241155
:1048300024FD2411FC112410201420182010200025
:1048400020B5C820403F7E4890850801003FF80110
:10485000000100FFFE000000207FFC08200420046F
:10486000A00040B0B410401020102013FEFA021433
:104870004410401BFE3088D088110810D010201042
:104880005050882304BCC600402040104010400017
:10489000400040F7FE1040104010401040104014FF
:1048A00040184010400040B7D104407FF804483F12
:1048B000F824403FFC0844105420085FF010101109
:1048C00010111002C00C303008CAFD082049202AFF
:1048D00020083EFF442A44494488A41028FE282288
:1048E000104210642818283444C282CBD9004020DA
:1048F0004017FC104003F80248F24813F810E0118A
:1049000050124814441040280047FE0000B6C80169
:104910000000803FFE222022203FFC222022202374
:10492000E020002FF02410422041C08630380ECA0B
:10493000B1000800087C08440845FE440844087C8F
:104940000844884448444844087C08440800280037
:1049500010BCE4200013FC1004400447C444444449
:1049600044444447C444444444444447C440044049
:10497000144008B8F11080108010F81108FB1014D2
:10498000A0304038A05518520695F81108110811AA
:104990000811F81108BBB600800080FC8004FC05FB
:1049A0000449082A401440104028A024A045108142
:1049B00010020804040802D3AD00002080133C124A
:1049C0002402240224F2241224122412B4132812E2
:1049D000201020282047FE0000B9E2010021081124
:1049E00008091009200100FFFE04400440044004AF
:1049F00040084208421042203EC000C1D908800849
:104A000080088049FE49404A204C20480049FC4922
:104A10002449244924492409FC09040800B3B502A7
:104A200000020002007FFC04000900110021003F89
:104A3000F801000100FFFE0100010001000100C7B4
:104A4000EB0040404027FC204003F80040E7FE20F8
:104A50000023F8220823F822082BF8320822280223
:104A600010CFB500F83F000400082010403F80013F
:104A700000061018087FFC010409201110210845C8
:104A8000040200BAC3100010FC10041008FC10242B
:104A900020242025FE2420482028201020282044DF
:104AA0002084A00040B0B2020001003FFC2004427C
:104AB0000802000200FFFE04200820184006400102
:104AC0008002600C107008C8AB0100010002800475
:104AD00040082010102FE8C106010001001FF0015E
:104AE00000010001007FFC0000B4F8092009207FCC
:104AF000FC0920092000007FFE410281041FF01103
:104B00001011101150112001000100002C4B000861
:104B10000000002034000000EC2E0008604B00086C
:104B200034000020EC060000FC2E0008000000000D
:104B30000000000000000000000000000000000075
:104B40000000000000000000000000000100000064
:104B500010000000000000000024F400000000002D
:04000005080000ED02
:00000001FF
